:100000000C942A000C948C020C9445000C9445002E
:100010000C9445000C9445000C9445000C9445004C
:100020000C9445000C9445000C9445000C9445003C
:100030000C9445000C94B0020C9445000C944500BF
:100040000C9445000C9445000C9445000C9445001C
:100050000C94450011241FBECFE5D8E0DEBFCDBF14
:1000600015E0A0E6B0E0E2E9F2E302C005900D92EF
:10007000A032B107D9F717E0A0E2B5E001C01D92A8
:10008000AC32B107E1F70C9423020C9400000F93FB
:100090001F938C0180E690E00E940003C8010E943B
:1000A000000382E790E00E9400031F910F910895E2
:1000B0000E94C90E85E790E00E9447000E947715D4
:1000C0000E94A81508958091260590912705892BF7
:1000D00041F481E090E0909327058093260563E04A
:1000E00005C0109227051092260567E08BE20E945A
:1000F000F40708950F931F93CF93DF938091E60544
:100100009091E705892B09F442C08DE790E00E94A9
:10011000470068E08BE20E94F4078091E605909129
:10012000E7058134910568F08091E6059091E70537
:10013000805490409093E7058093E60500E410E03A
:1001400004C00091E6051091E705C0E0D0E012C0C0
:10015000E0912805F091290586E0EE0FFF1F8A95B2
:10016000E1F7E55AF94FEC0FFD1F608189E20E942B
:10017000F4072196C017D1075CF31092E70510929F
:10018000E60510922905109228050E946300DF9170
:10019000CF911F910F9108950F931F93CF93DF93EA
:1001A00088E890E00E9447008091E6059091E7057D
:1001B0000E940A038091E6059091E705C797A8F091
:1001C00020E030E0A1E9B6E0E091EF05F091F00524
:1001D00004C081918D932F5F3F4F8091E6059091F0
:1001E000E705C69728173907A0F368E08BE20E945D
:1001F000F4078091E6059091E70581349105A8F117
:100200008DE890E00E944700C0E0D0E0E091280532
:10021000F091290596E0EE0FFF1F9A95E1F7E55A58
:10022000F94FEC0FFD1F608189E20E94F4072196CF
:10023000C034D10559F78091280590912905019680
:1002400090932905809328058091E6059091E70514
:10025000805490409093E7058093E60581E090E01C
:1002600090932705809326051BC08FE990E00E949C
:100270004700C0E0D0E00BE516E007C0F80161914F
:100280008F0189E20E94F40721968091E605909102
:10029000E705C817D90790F31092E7051092E60515
:1002A0000E946300DF91CF911F910F9108950F93EA
:1002B0001F93CF93DF938FEA90E00E9447008091D5
:1002C000E6059091E705892BE9F4C3EFD5E0D093DB
:1002D000F205C093F10582E00E94500F8091E6057F
:1002E0009091E705892B41F085EB90E00E94470053
:1002F0000E94BE150E94CC00A09686E0C335D807A8
:10030000B9F1E5CF009167061091680680E098E0AA
:100310000E94230F0817190791F48DEB90E00E94BB
:1003200047000E94E81781E00E94500F8091E60587
:100330009091E705892BE1F00E94BE1517C000914E
:1003400067061091680686E098E00E94230F081760
:10035000190771F480ED90E00E9447000E944B174E
:100360008091E6059091E705892B11F00E94CC0061
:10037000DF91CF911F910F9108950F931F938C01DF
:1003800083EE90E00E944700A0912405B0912505DE
:10039000A55AB94FF8019801205C3F4F81918D9388
:1003A000E217F307D9F7009167061091680680E01D
:1003B00098E00E94230F0817190779F580916B06C2
:1003C0002FEF829FC001112420916C06820F911D96
:1003D00090932305809322059C01225F3F4FC39792
:1003E0002CF43093E7052093E60515C08091240591
:1003F00090912505805C9F4F90932505809324055F
:1004000082179307ECF03093E7052093E6051092EE
:100410002505109224050E9457010091670610914E
:10042000680686E098E00E94230F0817190741F438
:100430008AE290E09093E7058093E6050E945701D9
:100440001F910F910895CDE5D8E0DEBFCDBF0E948A
:10045000DA020E947A0885E295E00E94C50888E8E1
:1004600098E20E94CA0881E092E00E94CF0889E0E9
:10047000898384E08A83CE0101960E94B70C8BEEBB
:1004800090E00E94610D84EF90E00E94590D8DEF85
:1004900090E00E94510D82E00E94D40880E00E940A
:1004A000D70880E00E94DA080E948B0C4C0162E3BE
:1004B00070E00E94DD0860E070E0C4010E94F70B6C
:1004C0003C0140E050E0BC01C4010E94FE084DEB3D
:1004D000A42E41E0B42ECC24DD2430E4E32EF12C14
:1004E00002E022E030E041E050E0B301C4010E94AC
:1004F000C40B2AE7A22E20E0B22E23E030E041E038
:1005000050E0B301C4010E948C0B0E9458000E946D
:10051000C2070E94930DFFCF1F920F920FB60F924A
:1005200011242F933F934F935F936F937F938F93F8
:100530009F93AF93BF93EF93FF930E94690DFF9139
:10054000EF91BF91AF919F918F917F916F915F914B
:100550004F913F912F910F900FBE0F901F901895C4
:100560001F920F920FB60F9211242F933F934F9328
:100570005F936F937F938F939F93AF93BF93EF930B
:10058000FF930E94EB020E94230388E091E00E9407
:100590000003FF91EF91BF91AF919F918F917F9158
:1005A0006F915F914F913F912F910F900FBE0F90E0
:1005B0001F90189580EC8BB988E98AB986E880BDD0
:1005C00010BC83E389B98CB15F99FDCF08955D9B21
:1005D000FECF8CB908955F9BFECF8CB1992708950B
:1005E0008A3310F4805301C087556A3310F4605386
:1005F00001C067558295807F6F70862B992708957B
:10060000FC0104C05D9BFECF31968CB980818823AC
:10061000C9F70895982F92959F708F709A3020F4A3
:100620005D9BFECF905D03C05D9BFECF995A9CB948
:100630008A3020F45D9BFECF805D03C05D9BFECFC2
:10064000895A8CB90895EF92FF920F931F93CF931D
:10065000DF938936D9F08A3650F4843609F48DC098
:10066000883609F45BC0823609F0D6C0BBC0823739
:10067000B1F1833720F4803709F0CEC0C8C083378A
:1006800009F463C0873709F0C7C003C00E94930D07
:10069000C7C00E94EB02082F0E94EB02182F682FA0
:1006A000802F0E94F0020E940A03612F802F0E9477
:1006B000F002082F8EE091E00E9400030E94EB02FE
:1006C000182F0E94EB02682F812F0E94F0020E94D7
:1006D0000A0385E191E00E940003802F18C080E2A8
:1006E00091E00E9400030E94EB02082F0E94EB029F
:1006F000182F682F802F0E94F0020E940A038EE2BA
:1007000091E00E940003612F802F0E94F0020E945E
:10071000DB070E940A038DE191E080C081E391E054
:100720000E94000389E491E00E94000388E891E0C0
:100730000E94000384EB91E00E94000380ED91E0B1
:100740000E94000385EF91E069C0C0E0D0E08C2FEB
:100750000E940A038EE291E00E9400038C2F0E9407
:10076000DB070E940A038DE191E00E9400032196BD
:10077000C034D10509F454C0EACF8AE092E00E9467
:100780000208C091AA05D091AB0529C00881198142
:100790008A810E940A038B810E940A038C810E9435
:1007A0000A038D810E940A038EE192E00E940208F2
:1007B000EE24FF2408C0F80181918F010E940A03F2
:1007C0000894E11CF11C8B819927E816F9069CF32B
:1007D0008DE191E00E9402080F80D885C02D2097FE
:1007E000A9F61EC081E292E00E94000368E08BE25D
:1007F0000E94F40761E089E20E94F407C0E0D0E0C3
:100800008C2F0E94EB072196CF33D105C9F763E007
:100810008BE20E94F40704C08DE392E00E94000383
:10082000DF91CF911F910F91FF90EF90089587E294
:100830008093C90585E28093C80590E29093CA052C
:100840001092CB0528E030E03093CD052093CC0505
:1008500083E28093D70581E28093D6059093D805F3
:100860001092D9053093DB052093DA050895089599
:100870006091E50581E20E94F407089568E08BE24B
:100880000E94F40763E188E20E94F40768E08FE2C7
:100890000E94F40762E18CE20E94F40761E08FE2BB
:1008A0000E94F40768E08BE30E94F40765E188E3A7
:1008B0000E94F40765E083E20E94F40708950F9315
:1008C0001F938C0160E480E20E94F407F8016281CA
:1008D000605884E00E94F407F80182818093E40567
:1008E0001F910F9108950F931F93CF93DF93EC0106
:1008F0002A853B8512161306DCF5888599858217B3
:1009000093071CF568E083E20E94F40700E010E022
:100910000FC08C859D85E80FF91F608181E20E94E0
:10092000F407888599850196998788870F5F1F4FFF
:10093000E885F9858A859B85083011051CF4E81740
:10094000F9073CF3E817F90724F061E087E20E9419
:10095000F4078B81813031F465E089810E94F407CE
:100960001B8206C061E089810E94F40781E08B83CD
:10097000DF91CF911F910F910895DF92EF92FF9237
:100980000F931F93CF93DF93CDB7DEB724970FB6A6
:10099000F894DEBF0FBECDBF8C01FC01E280F38076
:1009A0001092DF051092DE0581E08093D9058F2D2E
:1009B0009927823001F18330B1F1813009F06FC0A5
:1009C0008FE492E00E9402088091B40599279093E9
:1009D000E1058093E00584EB95E09093E305809337
:1009E000E205F801868197818034910509F057C0AE
:1009F00088E090E038C083E692E00E940208F801A7
:100A0000868197819093E1058093E005EE2DFF2785
:100A1000EE0FFF1F8091C6059091C705E80FF91FE3
:100A20008081918138C08DE792E00E9402080E2DEE
:100A30001127C8010E940A0380E992E00E9402087F
:100A4000EE20B1F0000F111F80919F059091A0053D
:100A5000080F191FD801ED91FC91F093E305E09385
:100A6000E205808199279093E1058093E00517C006
:100A700083E992E00E94020894E0998383E08A83EC
:100A800089E08B839C8384E090E09093E1058093E0
:100A9000E005CE0101969093E3058093E20586ED93
:100AA00095E00E94730424960FB6F894DEBF0FBE43
:100AB000CDBFDF91CF911F910F91FF90EF90DF900D
:100AC00008951F93CF93DF9382E20E94DB07182FD4
:100AD00087EA92E00E940208C12FDD27C5FF1FC0F0
:100AE00068E083E20E94F407C6FF10C02091DE0593
:100AF0003091DF058091E0059091E10528173907D5
:100B00004CF486ED95E00E9473040DC089EA92E0F2
:100B10000E94020861E087E20E94F40704C08AEBA9
:100B200092E00E940208DF91CF911F9108950F93E8
:100B30001F93CF93DF93CDB7DEB728970FB6F89406
:100B4000DEBF0FBECDBF85EC92E00E94020886E2B8
:100B50000E94DB07482F552746FFABC08E010F5F71
:100B60001F4F8091C8050E94DB07F80181938F0118
:100B7000CE010996E817F907A1F78E010F5F1F4F05
:100B8000F80181918F0199270E940A03CE010996ED
:100B900008171907A9F780E992E00E9402088E0160
:100BA0000F5F1F4F68E087E20E94F40768E083E26E
:100BB0000E94F40780E20E94DB078F77682F80E2B3
:100BC0000E94F40789819927807690708032910580
:100BD00009F452C08034910509F451C0892B09F001
:100BE00055C0F80181818630F1F0873048F48130BA
:100BF00099F0813028F18330B1F18530D1F523C0EF
:100C0000893049F18A3018F4883099F508C08A3063
:100C100091F08B3071F52AC08AEC92E00EC0C801C9
:100C20000E9438043FC088ED92E00E940208C8018B
:100C30000E94BD0437C089EE92E00E94020832C0D3
:100C400089EF92E0FACF86E093E00E940208C801A3
:100C50000E945F0427C083E193E00E940208C8015C
:100C60000E943E041FC087E293E0E7CF85E393E054
:100C700008C085E493E00CC080E693E002C080E702
:100C800093E00E94020865E083E20AC081E893E0F5
:100C90000E94020880E20E94DB078058682F80E2F1
:100CA0000E94F407F8018081882319F565E083E24A
:100CB0001EC02091E0053091E1058091DA05909108
:100CC000DB0582179307ACF44F7550704031510526
:100CD00021F088E993E00E9402081092E105109249
:100CE000E00568E083E20E94F40761E087E20E9489
:100CF000F40728960FB6F894DEBF0FBECDBFDF9184
:100D0000CF911F910F9108951F9388E00E94DB07F8
:100D1000182F87EA93E00E940208812F992786FF07
:100D20001BC060E085E00E94F40760E884E00E9458
:100D3000F40760E080E20E94F40768E083E20E942A
:100D4000F40761E087E20E94F40762E085E00E9418
:100D5000F40783EB93E021C084FF0BC060EC89E0D3
:100D60000E94F40763E085E00E94F4078BEB93E0B8
:100D700014C017FF0BC060E589E00E94F40762E031
:100D800085E00E94F40781EC93E007C083FF03C075
:100D90008AEC93E002C080ED93E00E9402081F916C
:100DA00008951F938AE00E94DB07182F87ED93E0D8
:100DB0000E940208812F992780FF03C00E946105CD
:100DC00019C081FF0DC08AE20E94DB078091A10556
:100DD000813081F4E091A405F091A50509950AC040
:100DE00087ED93E00E94020882E30E94DB078AE31A
:100DF0000E94DB071F9108958EE00E94DB0782EEC0
:100E000093E00E94020808950F931F93CF93DF93FE
:100E1000CDB7DEB7C054D0400FB6F894DEBF0FBEDA
:100E2000CDBF8CE00E94DB07182F8FEE93E00E946D
:100E30000208812F992780FF03C00E94970575C083
:100E400081FF28C08EE20E94DB078DE20E94DB0753
:100E500089838E010F5F1F4F0F5F1F4F0E94CF07C7
:100E6000F8018083CE01805C9F4F08171907A1F716
:100E700080919405813039F4E0919705F0919805BF
:100E8000CE010196099568E08FE20E94F40761E0C7
:100E90008FE229C082FF2AC086E30E94DB0785E338
:100EA0000E94DB0789838E010F5F1F4F0F5F1F4F6B
:100EB0000E94CF07F8018083CE01805C9F4F081706
:100EC0001907A1F780919505813039F4E0919905D2
:100ED000F0919A05CE010196099568E087E30E949A
:100EE000F40761E087E30E94F4071FC083FF1DC081
:100EF0008EE30E94DB078E010F5F1F4F8DE30E9480
:100F0000DB07F80181938F01CE018F5B9F4FE817BC
:100F1000F907A1F780919605813039F4E0919705A2
:100F2000F0919805CE0101960995C05CDF4F0FB690
:100F3000F894DEBF0FBECDBFDF91CF911F910F910F
:100F40000895CF92DF92EF92FF920F931F93CF936A
:100F5000DF936C017A01C0E0D0E08B0107C0F8019B
:100F600061918F01C6010E9435082196CE15DF05DB
:100F7000B4F3DF91CF911F910F91FF90EF90DF902D
:100F8000CF90089585B7826085BF8BB780648BBF93
:100F9000789488EF81BB82B3886382BB089582B363
:100FA00098E1892782BB0000000082B3892782BBB9
:100FB00083B3992708959FEF94BB85BB82B398E6CE
:100FC000892782BB82B3892782BB000014BA0E94A2
:100FD000CF079927089585BB82B398E2892782BB02
:100FE00082B3892782BB089585BB8FEF84BB82B310
:100FF00098E6892782BB82B3892782BB862F0E940D
:10100000EB0708950E9400030895CF93DF93DC015E
:10101000EC01EC81FD81219188859985019721F46E
:101020008A819B81E81BF90BED01FD83EC83998795
:1010300088878D919C911197019711969C938E931F
:10104000822F9927DF91CF910895FC0111821082A0
:101050007783668375836483538342835387428790
:10106000518740878FEF84870895CF93DF93DC010A
:101070002D913C911197EC018A819B8128173907AA
:101080001CF080E090E01AC0ED01EE81FF816193D9
:101090008A859B85019721F48A819B81E81BF90B46
:1010A000ED019B878A87FF83EE838D919C91119739
:1010B000019611969C938E9381E090E0DF91CF9101
:1010C0000895FC0180819181892BE1F3CF010E9479
:1010D000050899270895FC0180819181892B19F4D5
:1010E0002FEF30E005C0CF010E940508282F3327DD
:1010F000C901089582E18093B40581E08093B5052C
:1011000080E191E09093B7058093B6051092B80501
:101110001092B9051092BA0588E08093BB05109231
:10112000BD051092BC051092BF051092BE0510922D
:10113000C1051092C0051092C2051092C30510920D
:10114000C4051092C5051092940510929505109251
:1011500096051092A1051092A2051092A305109277
:10116000AB051092AA0510929E0510929D05089558
:101170009093BD058093BC057093BF056093BE0539
:101180005093C1054093C00508959093BD05809389
:10119000BC0508959093BF058093BE050895909374
:1011A000C1058093C00508958093B8050895809384
:1011B000B90508958093BA050895CF93DF939C01F4
:1011C000CB01E091AA05F091AB0562E070E00E94CE
:1011D00022190FC0A081B1818281823039F4ED01E2
:1011E0008D8199278217930709F468870780F08516
:1011F000E02D309779F7DF91CF910895CF93DF936A
:101200009C01E091AA05F091AB0514C0A081B181C9
:101210008281843061F4848199278217930739F49D
:10122000868199278617970711F4ED014B83078074
:10123000F085E02D309751F7DF91CF910895BF925F
:10124000CF92DF92EF92FF920F931F93CF93DF9392
:101250006C01162FF42EB22EC091AA05D091AB05C9
:101260002097A1F489E090E00E942218FC0190935D
:10127000AB058093AA05D182C082138310861782A2
:10128000F282B4820583E68215C0EC018F819885D5
:101290000097D9F789E090E00E942218FC01988716
:1012A0008F83D182C0821383F282B4820583E68267
:1012B00010861782DF91CF911F910F91FF90EF90D1
:1012C000DF90CF90BF900895EF92FF921F93CF933E
:1012D000DF937C01C0919D05D0919E05209711F070
:1012E00011E012C085E090E00E942218FC0190936A
:1012F0009E0580939D05F182E08212821482138202
:1013000010E012C01F5FEC018B819C810097D1F728
:1013100085E090E00E942218FC019C838B83F1827F
:10132000E082128314821382812F9927DF91CF915B
:101330001F91FF90EF900895EF92FF920F931F93EC
:10134000CF93DF93E0919D05F0919E0580E090E0C2
:101350000380F481E02D01963097D1F7880F991F13
:101360000E9422189093A00580939F0500919D05EF
:1013700010919E05E801E880F9808A81C82FDD2759
:10138000CC0FDD1F80919F059091A005C80FD91F3C
:10139000F701808199270E9422189983888320E091
:1013A00030E0D70114C0E801EA81FF27EE0FFF1FEC
:1013B00080919F059091A005E80FF91F0190F081A1
:1013C000E02DE20FF31F8D9180832F5F3F4FF701D8
:1013D000808199272817390734F3E8018B819C8194
:1013E000009711F08C01C6CFDF91CF911F910F9123
:1013F000FF90EF9008956F927F928F929F92AF929D
:10140000BF92CF92DF92EF92FF920F931F93CF93F1
:10141000DF93E091AA05F091AB058824992409C0D7
:101420008281823019F40894811C911C0780F08518
:10143000E02D3097A9F73401660C771CC3010E9498
:1014400022189093C7058093C60571E0E72EF12C12
:10145000AA24BB2453C0E091AA05F091AB0569E032
:10146000C62ED12C15C0A081B181848199278E15FB
:101470009F0519F48381C80ED11CED018D818E1555
:1014800021F48281823009F45D010780F085E02D2E
:10149000309749F70091C6051091C705060D171D35
:1014A00002501040C6010E942218F80191838083E7
:1014B00020E030E0D501E091C605F091C705E60DCA
:1014C000F71D32970190F081E02DE20FF31F8D910F
:1014D00080832F5F3F4F2930310569F7E091C605C2
:1014E000F091C705E60DF71D32970190F081E02DD0
:1014F0008C2D875F82830894E11CF11C8E149F045D
:101500000CF0A9CF51E0E52EF12C49E0C42ED12CEE
:101510006624772432E0A32EB12C9AC08481682EF1
:10152000772415C0A091AA05B091AB050EC0ED912E
:10153000FC9111978181823029F4858199278E153C
:101540009F0561F3ED01AF81B885109781F701E048
:1015500010E073C04091AA055091AB0568C0DA0154
:10156000ED91FC918181843009F05EC0EA018E81A9
:1015700099278017910709F057C08C8199278E15FC
:101580009F0509F051C09601DF01BF01675F7F4FE2
:10159000E091C605F091C705EA0DFB1D3297019059
:1015A000F081E02DE20FF31F8D9180832F5F3F4F7D
:1015B000A617B70769F7E9E0F0E0CE0EDF1EC0918D
:1015C000AA05D091AB052EC08A81853041F58C816A
:1015D00099278E159F0519F58D81992780179107F9
:1015E000F1F4888199819601DC01BC01695F7F4F2C
:1015F000E091C605F091C705EA0DFB1D32970190F9
:10160000F081E02DE20FF31F8D9180832F5F3F4F1C
:10161000A617B70769F787E090E0C80ED91E0F80BC
:10162000D885C02D209781F6EA014F815885411554
:10163000510509F094CF0F5F1F4F601671060CF033
:1016400089CF0894E11CF11CE2E0F0E0AE0EBF1E71
:101650008E149F040CF066CFDF91CF911F910F91F4
:10166000FF90EF90DF90CF90BF90AF909F908F90C2
:101670007F906F9008956F927F928F929F92AF921A
:10168000BF92CF92DF92EF92FF920F93CF93DF93AF
:101690005C013B014901E091AA05F091AB0516C040
:1016A000A081B18184819927A816B90661F4868149
:1016B00099278615970539F48281843021F4ED014C
:1016C0008C818F5F8C830780F085E02D309741F708
:1016D00087E090E00E942218FC0187E0808385E08B
:1016E000818382820383F582E482C682EE24062D02
:1016F0002A2D45E067E0CF010E941F09DF91CF91BD
:101700000F91FF90EF90DF90CF90BF90AF909F90A0
:101710008F907F906F900895AF92BF92CF92DF929B
:10172000EF92FF920F93FC01A114B10401F142303A
:10173000510571F04330510599F041305105B9F42C
:1017400081E08093A105B092A505A092A4050FC0E9
:1017500081E08093A205B092A705A092A60507C0DC
:1017600081E08093A305B092A905A092A805205816
:101770003F4FCF010E943B0B0F91FF90EF90DF9006
:10178000CF90BF90AF900895AF92BF92CF92DF926B
:10179000EF92FF920F93FC014230510571F04330FC
:1017A000510599F041305105B9F481E080939405D9
:1017B000B0929805A09297050FC081E0809395059F
:1017C000B0929A05A092990507C081E08093960592
:1017D000B0929C05A0929B05CF010E943B0B0F91FC
:1017E000FF90EF90DF90CF90BF90AF900895CF9291
:1017F000DF92EF920F931F93CF93DF936C018B01D6
:10180000A091AA05B091AB05C0E0D0E014C02D9125
:101810003C911197F90185818C1551F4FD0182816C
:10182000823031F4F90184818F5F8483C82FDD27F2
:10183000FD01A781B085109751F789E090E00E94E3
:101840002218FC0189E0808384E081830283138273
:1018500014821582168217821086EC2E00E02C2D41
:1018600044E069E0CF010E941F09CE01DF91CF91D2
:101870001F910F91EF90DF90CF900895BF92CF927C
:10188000DF92EF92FF920F931F93CF93DF936C0140
:101890007B01142FB22EA091AA05B091AB05C0E038
:1018A000D0E014C02D913C911197F90185818C15E0
:1018B00051F4FD018281823031F4F90184818F5F1E
:1018C0008483C82FDD27FD01A781B085109751F7CC
:1018D00089E090E00E942218FC0189E0808384E086
:1018E0008183E282138214821583B6820783108675
:1018F000EC2E00E02C2D44E069E0CF010E941F098E
:10190000CE01DF91CF911F910F91FF90EF90DF906B
:10191000CF90BF900895CF92DF92EF920F93C09037
:10192000C505C394C092C505DD2489E090E00E94FE
:101930002218FC0189E0808389E090E09383828310
:1019400082E081831482C582168280EA87838AE1DD
:101950008087EE2400E020E042E069E0CF010E94B1
:101960001F09C6010F91EF90DF90CF900895EF927D
:10197000FF920F931F93CF93DF938C01FC01019093
:101980000020E9F73197E81BF90BEE0FFF1FCF019D
:1019900002960E9422187C01BC01F80101900020EF
:1019A000E9F73197E01BF10BEE0FFF1FEE5FDC0153
:1019B000EC9383E0E701898340E050E0F801019077
:1019C0000020E9F73197E01BF10B980108C0D9011D
:1019D0008D919D01EB01888319824F5F5F4F6E5F90
:1019E0007F4F4E175F0798F3C7010E94640999273C
:1019F000DF91CF911F910F91FF90EF900895EF929B
:101A0000FF920F931F93CF93DF938C017B01CA0149
:101A10000E94B70C9C01E091AA05F091AB0514C09F
:101A2000A081B1818281843061F4848199278017FB
:101A3000910739F4868199278E159F0511F4ED01E0
:101A400028870780F085E02D309751F7DF91CF91FF
:101A50001F910F91FF90EF9008950F931F93CF93D5
:101A6000DF938C01CB010E94B70C9C01E091AA0589
:101A7000F091AB050FC0A081B1818281823039F431
:101A8000ED018D8199278017910709F42E83078036
:101A9000F085E02D309779F7DF91CF911F910F916D
:101AA00008950E94B70C1816190614F48093C40503
:101AB00008950E94B70C1816190614F48093C305F4
:101AC00008950E94B70C1816190614F48093C205E5
:101AD00008951F938AEF93E00E94000386E00E941E
:101AE000DB07992786FF03C00E9404070EC082FF10
:101AF00003C00E94D10609C081FF03C00E94840672
:101B000004C084FF02C00E94FC0687E00E94DB073D
:101B1000182F60E087E00E94F407612F87E00E94A1
:101B2000F4071F9108950E94FB090E949C090E94DE
:101B3000170461E080E00E94F40780E00E94DB0768
:101B400080FDFBCF60E881E00E94F4076FEF8FE03B
:101B50000E94F40760E18FE00E94F40760E884E0EF
:101B60000E94F40760E480E20E94F40768E083E2E8
:101B70000E94F40769E087E20E94F4076FE08DE0BD
:101B80000E94F4076FE08BE00E94F40768E589E0AB
:101B90000E94F40766ED87E00E94F40762E085E0AA
:101BA0000E94F4076CEC80E00E94F4070895FC01A9
:101BB0008381860F8093ED05272F33278281820F43
:101BC0008093EC0581818093EB0580818093EA0509
:101BD0008091EC0599278217930770F48091EB05AB
:101BE0008F5F8093EB058091EB05882329F480912A
:101BF000EA058F5F8093EA058091ED059927707063
:101C000086179707B8F48091EC058F5F8093EC05F9
:101C10008091EC05882371F48091EB058F5F8093B0
:101C2000EB058091EB05882329F48091EA058F5F0D
:101C30008093EA05089508950F931F93CF93DF9340
:101C40008C01C0E0D0E06230710570F0F801808155
:101C50009181C80FD91FC817D90708F421960E5FC4
:101C60001F4F62507040EFCF61307105A1F4F80151
:101C700080819927982F88270E94230FC80FD91F8A
:101C8000F80180819927982F88270E94230FC81771
:101C9000D90708F42196CE01DF91CF911F910F91C2
:101CA000089564E170E089E696E00E941C0E0895B4
:101CB0000F931F93CF93DF9364E170E08DE796E07D
:101CC0000E941C0E8C0180916B069927982F882703
:101CD00020916C06820F911D8897BC018091EF05C1
:101CE0009091F0050E941C0EEC01C00FD11FC0178F
:101CF000D10708F421968091750690917606C80F59
:101D0000D91FC817D90708F42196809177069091BA
:101D10007806C80FD91FC817D90708F421968091F3
:101D2000790690917A06C80FD91FC817D90708F409
:101D3000219680917B0690917C06C80FD91FC81709
:101D4000D90708F4219686E090E00E94230FC80F7F
:101D5000D91F86E090E00E94230FC817D90708F426
:101D6000219680916B069927982F882720916C06E1
:101D7000820F911D44970E94230FC80FD91FC817C7
:101D8000D90708F42196CE01DF91CF911F910F91D1
:101D9000089510925406109253061092560610920F
:101DA000550610920C0610922C0610924C0683E0F9
:101DB0008093300508959C01109230058091530660
:101DC000909154068217930721F4E0E0F0E080E060
:101DD0000AC080915506909156068217930761F4C8
:101DE000E1E0F0E081E080933005EE0FFF1FED5A57
:101DF000F94F11821082089582E080933005089592
:101E00009C01109230058091530690915406892BC5
:101E100021F4E0E0F0E080E009C080915506909167
:101E20005606892B61F4E1E0F0E081E08093300513
:101E3000EE0FFF1FED5AF94F31832083089582E0A2
:101E40008093300508959C01982F8827232F3327EE
:101E5000822B932B0895BC018091F1059091F2059E
:101E600008960E94D70D8091EA05E091F105F09166
:101E7000F20580878091EB05E091F105F091F20584
:101E800081878091EC05E091F105F091F205828760
:101E90008091ED05E091F105F091F20583870895B9
:101EA0000F931F93CF93DF93C091F105D091F2056B
:101EB00021E936E03093F0052093EF05823009F0F8
:101EC00090C080912F058F5F80932F05882399F410
:101ED00080912E058F5F80932E05882361F4809179
:101EE0002D058F5F80932D05882329F480912C0583
:101EF0008F5F80932C051092E7051092E605298DDF
:101F0000273011F0253041F48A8D8F5F8A8F883712
:101F100009F0A7C5198EA5C5222309F4A2C5888991
:101F20009989892B09F44DC08A8D81508A8F8F3F02
:101F300009F097C53B8D383029F02150223048F404
:101F4000333039F4198E80E88093EE050E943A15FB
:101F50002DC4353010F080E307C083E090E002C06C
:101F6000880F991F3A95E2F78A8F8B8D8F5F8B8F41
:101F7000898D99278F7090708430910509F473C30F
:101F80008530910544F48130910509F456C20397D8
:101F900009F067C508C08630910509F464C3089745
:101FA00009F05FC560C31092E7051092E605109234
:101FB00027071092260784E08093EE050E943A15C9
:101FC00032C42F70233009F04CC51092E7051092EF
:101FD000E605109227071092260788E08093EE0509
:101FE000DAC389010852104080916906853419F0DE
:101FF00080E094E03DC020916B068091E6059091D1
:10200000E7053327892F99272817390769F0809129
:10201000E6059091E7059070322F2227822B932BB3
:102020009093E7058093E60580916C06282F33276F
:102030008091E6059091E70590702817390759F0CF
:102040008091E6059091E7058070822B932B909309
:10205000E7058093E60580916F0699278F7390704E
:10206000892B21F480917006882329F086E294E080
:102070000E944700F6C48091790690917A060A97EB
:1020800039F480917B0690917C068050944619F03B
:102090008CE394E0EDCF0E94510E8F5F9F4F19F0BB
:1020A00083E594E0E5CF809172068630D9F18130E6
:1020B00019F085E694E0DCCF80917D06883019F038
:1020C0008FE794E0D5CF10927D0680917F069091A6
:1020D0008006FFEF873F9F0710F0099601C0089622
:1020E0009093800680937F062091790630917A063E
:1020F0008091750690917606F801918B808B3587DB
:10210000248720917B0630917C0630933305209301
:1021100032058091770690917806938B828B378772
:102120002687A3C40E94580E8F5F9F4F19F084E941
:1021300094E09ECFC3EFD5E0E0917F06F09180065A
:1021400060917D0670917E064091750650917606ED
:102150002091770630917806898D8823A9F08C81AB
:102160009D81E817F90781F48E819F8168177907AF
:1021700059F4888199814817590731F48A819B81E4
:102180002817390709F46FC1A09686E0C335D80730
:1021900018F380918A06482F5527CA018F739070D3
:1021A0000297E9F420917F06309180063093330541
:1021B0002093320510923005809153069091540679
:1021C0002817390709F477C0809155069091560673
:1021D0002817390709F46FC082E08093300542FD6B
:1021E00040C484E1F80181A388E290E09093E70580
:1021F0008093E60580E580A390918406809188060F
:10220000838F4091830680918706828F468F30911D
:10221000820680918606818F358F209181062093DA
:10222000300580918506808F248F9F5F978F99233B
:1022300061F4842F8F5F868F882339F4832F8F5F1B
:10224000858F882311F42F5F248F20917D06309194
:102250007E0680917F0690918006F801958B848B95
:10226000378B268B2091790630917A0680917506FE
:1022700090917606918B808B3587248720917B0601
:1022800030917C0630933305209332058091770698
:1022900090917806938B828B37872687A0C3909383
:1022A0003005C42FDD2715E0CC0FDD1F1A95E1F7AF
:1022B000CD50DA4F20C010923005E3EFF5E0C0E0DA
:1022C000D0E090E020E030E0422F818D882339F388
:1022D000873039F4209721F0928D8A8D891708F480
:1022E000EF01942F9F5F2F5F3F4FB0962330310552
:1022F00059F790933005209731F487EA94E0B8CEEF
:102300001092310598C0D093F205C093F10583E097
:102310008A8F888F1E8A84E08F8B1B8E80917F0628
:10232000909180069D838C8380917D0690917E069E
:102330009F838E838091750690917606998388831A
:1023400080917706909178069B838A8381E0898FBC
:1023500080912C058C8780912D058D8780912E058D
:102360008E8780912F058F8781E090E0998B888BF5
:10237000809184068B87809183068A87809182066C
:10238000898780918106888781E090E00E942B0FE9
:1023900020918906822F9927807F90708135910541
:1023A0000CF44BC0109230059091310540E022951D
:1023B0002F70332725503040220F331F220F331F39
:1023C00033C0DB01A55AB94FFD0196A9992309F441
:1023D00097CF913011F44F5F27C09230F1F4FD0197
:1023E00087A98430D1F4909331054093300520AD16
:1023F0003327322F222781AD9927282B392B309371
:102400003305209332052439310510F023E930E0FB
:102410003B8B2A8B3D8B2C8B10C0655A794FFB016F
:1024200087A9882331F0480F642F77276217730735
:1024300044F2909331054093300582E180938A06FF
:1024400082E08093910684E0809392061092930636
:1024500083E9809394068CE290E09093E705809363
:10246000E60580E66EC2D093F205C093F1051092A6
:10247000EE0580918A06482F552742FF07C0198E26
:1024800089EC94E00E94470080E2FAC180918906BD
:1024900082958F70880F880F809330052091E60514
:1024A0003091E705281B3109245130403093E7056E
:1024B0002093E6058091E6059091E705892BC1F010
:1024C000909181068885981709F031C29091820613
:1024D0008985981709F02BC2909183068A859817F1
:1024E00009F025C2909184068B85981709F01FC2C8
:1024F00044FF50C0688979896115710509F44AC0A3
:10250000CE010C960E94D70D9091EA058091850628
:10251000891709F03FC09091EB05809186068917D5
:10252000C9F59091EC0580918706891799F59091EE
:10253000ED0580918806891769F58091EA058C87F9
:102540008091EB058D878091EC058E878091ED055C
:102550008F878B8D8823C9F42E89888D9A8D891B4E
:10256000922F969596959695891B280F2E8B3F89CD
:1025700087FD8195932F96959695891B830F8F8B59
:10258000269526952695280F288F81E08093EE05C5
:10259000888D8A8F898D99278F70907085309105ED
:1025A00009F499C1863091055CF48330910591F16D
:1025B000843091050CF069C1019709F052C20CC03A
:1025C0008730910509F4B3C1873091050CF4A7C198
:1025D000089709F046C24EC18091EE0580FF41C2C6
:1025E00083E0898F80E48093EE05198A188A8091B0
:1025F000E6059091E705892B09F4C9C08091EE05A5
:1026000082608093EE058091E6059091E7050E9437
:102610002B0FBDC080918A06482F552740FF27C049
:1026200088899989892B09F01CC28091E6059091CF
:10263000E70501960E942B0F80E18093EE058091C3
:10264000E6059091E705892B29F08091EE058260DF
:102650008093EE050E943A1581E090E0998B888B7B
:1026600088E0898F1B8E81E180938A0663C1209167
:102670008F068091900645FF34C080935A06809162
:102680005A062091E6053091E70599272817390762
:1026900030F48091E6059091E70580935A06809189
:1026A0005A0699270E942B0F8091E6059091E70525
:1026B00020915A06821B91099093E7058093E605C5
:1026C0008091EF059091F0059093590680935806FC
:1026D00020915A06820F911D9093F0058093EF058B
:1026E0001CC010925A063327322F22279927282BF5
:1026F000392B8091EF059091F005820F931F9093F5
:10270000F0058093EF058091E6059091E705821B27
:10271000930B9093E7058093E6058091E6059091F1
:10272000E705892B71F0898D84FD0BC08091EE0542
:1027300082608093EE058091E6059091E7050E9406
:102740002B0F80918B069927382F222780918C069A
:10275000280F311D30933305209332058C899D89D4
:102760008217930710F0232B21F490933305809365
:10277000320580913205909133059B8B8A8B809135
:10278000EE05992783709070892B09F46AC1109225
:102790002707109226070E943A158091EE0585FFC3
:1027A00007C01092270710922607198E84E15CCF8C
:1027B0008091EE0584FF0AC0109227071092260729
:1027C00081E090E0998B888B84E04BCF8091260745
:1027D00090912707892B21F18091EE0580FF03C09E
:1027E000198A188A04C0888999890097A1F4809170
:1027F0002607909127072A893B892817390720F453
:10280000309327072093260780912607909127076A
:10281000998B888B07C0909327078093260702C067
:10282000198A188A1B8E8091E8059091E90590938A
:10283000F0058093EF058091260790912707892B5B
:1028400059F088899989009739F088969093E7051F
:102850008093E60588E10BC08091EE0581FF01C100
:1028600088E290E09093E7058093E60580E180930D
:102870008A0666C08091EE0580FFF3C0198E80E164
:102880008093EE050E943A15ECC08091E605909188
:10289000E705892B31F08091E6059091E7050E94CC
:1028A0002B0F80918A0680FF0DC08091EE0580FF7E
:1028B00006C087E0898F1A8E198A188A1FC086E0A1
:1028C000898F1CC08091EE0580FF22C085E0898F32
:1028D000198A188AC6C08091E6059091E705892B70
:1028E00031F08091E6059091E7050E942B0F8091D1
:1028F0008A0680FF0DC087E0898F1A8E81E090E004
:102900000E942B0F80E18093EE050E943A150FC0C4
:102910008091E6059091E705892B49F4A2C080914A
:10292000EE0580FF9EC087E0898F1A8E9AC080E1F5
:10293000F80181A388E290E09093E7058093E60593
:1029400080E58093890688858093850689858093B4
:1029500086068A85809387068B85809388068C857A
:10296000809381068D85809382068E858093830671
:102970008F858093840686E0809372068C819D818A
:1029800090937E0680937D068E819F819093800632
:1029900080937F068AE090E0909376068093750698
:1029A00080E094E6909378068093770688819981F9
:1029B00090937A06809379068A819B8190937C0616
:1029C00080937B06898D84FF05C010928C0610923F
:1029D0008B0605C010928B0689EC80938C06809143
:1029E000E6059091E705892F992780936B068091E2
:1029F000E6059091E70580936C0610928E06109282
:102A00008D060E94580E8095909590938E06809327
:102A10008D0685E48093690610926A06109270060E
:102A200010926F068FEF8093710680912A05909126
:102A30002B05019690932B0580932A05292F332788
:102A400020936D0680936E061092740610927306A2
:102A50000E94510E80959095909374068093730612
:102A600004C01092E7051092E605DF91CF911F9107
:102A70000F9108958091EE0586FF09C08AEF94E0DA
:102A80009093E9058093E80585E090E017C0809178
:102A9000EE0581FD04C08091EE0582FF27C0E09124
:102AA000EF05F091F0058081883669F480E095E0CB
:102AB0009093E9058093E80588E090E090932707DC
:102AC0008093260708958081813721F480E18093E7
:102AD000EE0508958AEF94E09093E9058093E80568
:102AE00085E090E09093270780932607089584E07F
:102AF00092ED0E94000F0895809192058F5F809360
:102B000092051092900590E07BE0482F552760E0F9
:102B1000979FF0011124EC5CFA4F80819181228112
:102B20003381822B932B892B59F082859A01281BA4
:102B300031092837310524F0108211821282138264
:102B4000962F9F5F692F983018F390939005089502
:102B50001092900590E02BE080E0929FF00111240C
:102B6000EC5CFA4F10821182128213828F5F982FD1
:102B7000883098F388E0809390050895CF93DF9391
:102B8000E0917906F0917A068091F6049091F7042D
:102B9000C091EE04D091EF049F01282339238C23A8
:102BA0009D2328173907A1F460917B0670917C065C
:102BB0008091F8049091F904AB01482359232091A6
:102BC000F0043091F104822393234817590789F0C8
:102BD0008091F2049091F30490938D0580938C057D
:102BE0008091F4049091F50490938F0580938E0565
:102BF00008C0F0938D05E0938C0570938F0560936A
:102C00008E051092900560918C0570918D05409114
:102C10008E0550918F0520E030E084E395E0FC01C3
:102C2000808191816817790731F4828193814817F7
:102C3000590709F46DC02F5FCF010B96283011F0B2
:102C4000322FEDCF20939005283009F063C046E085
:102C500050E06FEF70E08BE596E00E941B19EBE708
:102C6000F6E086E0DF011D928A95E9F77A97A4E104
:102C7000B5E086E00D9001928150E1F7A1E7B6E062
:102C8000E4E1F5E086E001900D928150E1F780915A
:102C90008C0590918D05909382068093810680919A
:102CA0008E0590918F059093840680938306D09330
:102CB0007806C09377068091F0049091F104909388
:102CC0007A068093790680E091E090937006809375
:102CD0006F0690936A068093690688E090E090936F
:102CE0006C0680936B0686E080936D0684E080938B
:102CF0006E0688E096E0909368068093670681E907
:102D000096E09093F0058093EF058AE290E01EC074
:102D100030939005ABE5B6E0349686E001900D92D5
:102D20008150E1F7A1E6B6E0E4E1F5E086E001904C
:102D30000D928150E1F788E090E0EBE5F6E09587B1
:102D400084878091E6059091E7050E969093E705BC
:102D50008093E605DF91CF910895DF92EF92FF9285
:102D60000F931F93CF93DF938C017B0110929005FB
:102D700060E081E0D82EC4E3D5E07091920528810F
:102D8000398121153105E9F04A815B8141155105F1
:102D9000C1F0D8018D919C918217930791F4F801AD
:102DA000828193818417950761F460939005DE0119
:102DB0001496F70186E001900D928150E1F77A8731
:102DC00062C08D2D8F5F2B96893019F06D2DD82E16
:102DD000D6CF1092900540E050E024E335E0E901C1
:102DE00088819981892B39F48A819B81892B19F4F7
:102DF0005093900535C04F5F255F3F4F483011F02D
:102E0000542FEDCF40939005483051F51092930523
:102E10001092910510929005B0919205CB2FDD276D
:102E2000A0E070E040E050E0EEE3F5E060819E015C
:102E3000261B3109872F9927821793071CF47B2FB4
:102E4000761BA42F4F5F5F4F3B964830510571F7BB
:102E5000C1E8D5E0A093910570939305A0939005E8
:102E6000F80180819181A281B381FE0181939193C8
:102E7000A193B193D70186E00D9001928150E1F7C3
:102E8000809192058A87DF91CF911F910F91FF90DA
:102E9000EF90DF900895CF93DF938091E6059091B6
:102EA000E7058A9728F41092E7051092E6058DC091
:102EB0001092E7051092E605ABE5B6E080916F064B
:102EC0009091700621E08030920729F08050924066
:102ED00009F07BC05EC040918106509182068091CE
:102EE000EE049091EF044817590709F06EC0209145
:102EF0008306309184068091F0049091F1042817A4
:102F0000390709F062C080E092E0909370068093E8
:102F10006F06ED01A096FD01769686E0019009927C
:102F20008150E1F7C1E7D6E0E4E1F5E086E0019009
:102F300009928150E1F7C1E6D6E0E4E1F5E086E0F0
:102F4000019009928150E1F7EBE5F6E0EF01A096E0
:102F500086E0099001928150E1F780917706909187
:102F60007806FD0197A386A38091790690917A0651
:102F700091A780A7558F448F378F268F88E096E0E2
:102F8000958784878AE290E09093E7058093E60531
:102F90001CC020918106309182068091EE049091B0
:102FA000EF042817390789F42091830630918406AD
:102FB0008091F0049091F1042817390731F461E70A
:102FC00076E087E796E00E94AD16DF91CF910895F5
:102FD0008091E6059091E7050E979093E705809321
:102FE000E6058091F6049091F704209175063091E2
:102FF0007606282339234091EE045091EF04842370
:10300000952328173907E9F48091F8049091F90481
:103010002091770630917806282339234091F004D7
:103020005091F104842395232817390751F489E03E
:1030300095E00E94470061E676E085E796E00E9411
:10304000AD160895CF93DF93AC01029710F442E0E0
:1030500050E0A0912A07B0912B07FD01C0E0D0E01D
:1030600020E030E020C0808191818417950769F4C9
:1030700082819381209719F09B838A8304C0909367
:103080002B0780932A07CF0132C04817590738F41D
:103090002115310519F08217930708F49C01EF01FF
:1030A0000280F381E02D3097F1F62115310589F189
:1030B000C901841B950B049708F4A901E0E0F0E036
:1030C00026C08D919C91119782179307E9F44817B8
:1030D000590779F4ED018A819B81309719F0938328
:1030E000828304C090932B0780932A07CD01029618
:1030F00049C0841B950BFD01E80FF91F41935193C3
:1031000002978D939C933AC0FD01A281B3811097E1
:10311000C1F68091280790912907892B41F480916D
:103120001C0590911D0590932907809328072091F5
:103130001E0530911F052115310541F42DB73EB70D
:1031400080911A0590911B05281B390BE0912807E7
:10315000F09129072E1B3F0B2417350788F0CA0171
:1031600002962817390760F0CF01840F951F029649
:10317000909329078093280741935193CF0102C070
:1031800080E090E0DF91CF910895CF93DF93009797
:1031900009F44EC0EC0122971B821A82A0912A07E3
:1031A000B0912B07109711F140E050E001C0DC0115
:1031B000AC17BD0700F1BB83AA83FE0121913191B9
:1031C000E20FF31FEA17FB0771F42E5F3F4F8D915B
:1031D0009C911197820F931F99838883FD018281AF
:1031E00093819B838A834115510559F4D0932B0712
:1031F000C0932A071DC0FD0182819381AD01009714
:10320000B1F6FA01D383C28321913191E20FF31F0A
:10321000EC17FD0769F42E5F3F4F88819981820F7B
:10322000931FFA01918380838A819B819383828398
:10323000DF91CF910895DC0101C06D934150504062
:10324000E0F7089597FB092E07260AD077FD04D0F2
:103250000CD006D000201AF4709561957F4F089528
:10326000F6F7909581959F4F0895AA1BBB1B51E1DE
:1032700007C0AA1FBB1FA617B70710F0A61BB70BE6
:10328000881F991F5A95A9F780959095BC01CD018B
:0232900008959F
:10329200754950206C6F67206D6573736167653A7D
:1032A20020000D0A00737461727465640063616CBE
:1032B2006C6261636B0D0A0073656E64007061720B
:1032C20074206F66206D6573736167650D0A007304
:1032D200686F7274206D6573736167650D0A0065AE
:1032E20076656E74006C656E203E203000657468F1
:1032F20020696E206576656E7420666F756E640057
:1033020061727020696E206576656E7420666F75D5
:103312006E64007265636569766500422E5361755D
:10332200746572007573626E326E6574003230308D
:10333200362D30342D3132007573626E3E00766167
:103342006C75653A00726573756C743A000D0A000B
:103352007265616420555342207265673A002D3EC2
:103362000069207573626E20696E69742070726FD5
:103372006365647572650D0A0077207772697465FA
:10338200205553424E205265676973746572203C22
:10339200682C6C3E286164647265737329203C68F2
:1033A2002C6C3E202876616C75652920652E67207D
:1033B20030352030300D0A0072207265616420556C
:1033C20053424E205265676973746572203C682CC3
:1033D2006C3E20652E672E20303220282052494430
:1033E200290D0A00732073686F7720616C6C205579
:1033F20053424E205265676973746572730D0A00F9
:10340200622073656E6420746573742064617461F4
:103412002066726F6D2066756E6320746F20686F10
:1034220073740D0A00642073686F77206465736398
:10343200726970746F72730D0A000D0A44657363CA
:10344200726970746F72204C6973740D0A002020C7
:103452000073656E64207465737420646174612006
:1034620066726F6D206669666F310D0A00756E6B4C
:103472006E6F776E20636F6D6D616E640D0A00442E
:1034820045564943452044455343524950544F52AF
:103492000A0D00434F4E46494755524154494F4E3B
:1034A2002044455343524950544F522000535452E2
:1034B200494E472044455343524950544F522000ED
:1034C2000D0A006C616E67756167652064657363E0
:1034D200726970746F720074007374616C6C20682E
:1034E200616E647368616B65200074783020657268
:1034F200726F720A0072780D0A00434C52204645E0
:1035020041545552450A0D00474554204445534302
:10351200524950544F520A0D0047455420494E54C7
:103522004552464143450A0D0047455420535441F4
:103532005455530A0D0053455420414444524553B7
:1035420053200053455420434F4E4649475552415C
:1035520054494F4E0A0D0053455420464541545597
:1035620052450A0D0053455420494E544552464196
:1035720043450A0D00756E737570706F72746564E1
:10358200207374616E64617264207265710A0D0049
:10359200436C61737320726571756573740A0D00F3
:1035A20056656E646F7220726571756573740A0D6B
:1035B20000756E737570706F7274656420726571D8
:1035C20020747970650D0A006C656E6774682065F9
:1035D20072726F720D0A00616C74206576656E748A
:1035E2000D0A0072657365740D0A007364330D0A67
:1035F20000726573756D650D0A00656F700D0A00C6
:10360200656C73650D0A007478206576656E740DBD
:103612000A006E61636B206576656E740D0A007236
:1036220078206576656E740D0A006972710D0A0064
:1036320069703A20696E76616C696420766572738E
:10364200696F6E206F7220686561646572206C65B7
:103652006E6774682E0069703A20667261676D65E4
:103662006E742064726F707065642E0069703A2007
:103672007061636B6574206E6F7420666F72207563
:10368200732E0069703A2062616420636865636B1F
:1036920073756D2E0069703A206E65697468657283
:1036A20020746370206E6F722069636D702E0069E2
:1036B200636D703A206E6F742069636D702065636C
:1036C200686F2E007463703A2062616420636865DB
:1036D200636B73756D2E007463703A20666F756E3E
:1036E20064206E6F20756E7573656420636F6E6EF5
:1036F200656374696F6E732E007463703A20676F2E
:10370200742072657365742C2061626F7274696EC5
:103712006720636F6E6E656374696F6E2E000A00B8
:1037220000640A000001FFFFFF006176723E200084
:103732006F6B0A6176723E20006172702075706450
:103742006174650000BD3B33057120002C07000049
:00000001FF
